:100000000200B08054780179007A007B207D547C16
:1000100000120071E4F574F575E57524D6E5746495
:1000200080347F500280028002802BA874A975E979
:10003000C333F9E833F87420292401F987A0057542
:10004000E57570020574E57524D6E5746480347F27
:100050005002800280D580BC2280AA898288838B4E
:1000600000EC4D6036E4E0F608A31DBDFFF31C80F4
:10007000F0B800118B00EC4D6021E7F609081DBDBA
:10008000FFF41C80F1898288838B00EC4D600CE4C6
:1000900093F608A31DBDFFF31C80F022E4F5D07594
:1000A000817678207A56F608DAFC12000302000006
:0300B00002009CAF
:100100000080008000800080008000C000C000C02F
:1001100000C000B800B000A800A000FF00F700EF8A
:1001200000E700DF00D700CF00C700BF00B700AF77
:1001300000A800A000A000A000A000A000800080F7
:1001400000800080008000800080008000800080AF
:0401500000800080AB
:00000001FF
