:10000000020058898288838B00EC4D6036E4E0F66C
:1000100008A31DBDFFF31C80F0B800118B00EC4D50
:100020006021E7F609081DBDFFF41C80F189828874
:10003000838B00EC4D600CE493F608A31DBDFFF329
:100040001C80F022E4F5D075812A78207A0AF6081F
:0B005000DAFC12016C02000002004408
:100100006162638051E4F520F5218C248D258033D4
:10011000E4F522F523E5232405E52234FB50028093
:1001200002800280160523E52370020522E52324C0
:1001300005E52234FB5002800280EA0521E52170AA
:10014000020520E524B52007E525B52102800650EB
:1001500002800280BB2280AD80108D998D298000A5
:10016000309902800280F9C2992280EE02021D7845
:100170000179007A007B237D037C0012001975262B
:1001800000752730758780E4F521F522E52224FDEE
:10019000E52134FF500280028002802B7423252247
:1001A000F9E7852683852782F00527E52770020574
:1001B000260522E52270020521E52224FDE52134F1
:1001C000FF5002800280D5752600752730E4F521A6
:1001D000F522E52224FDE52134FF50028002800251
:1001E0008038852683852782E0F5E085268385276C
:1001F00082E0F528759888AD281201580527E52773
:10020000700205260522E52270020521E52224FD63
:10021000E52134FF5002800280C880FE2202016F77
:00000001FF
