:100000000200D9807D780179007A007B227D0B7C0B
:100010000012009A7801790B7A007B2D7D0B7C0011
:1000200012009A759000752000E52024F650028099
:1000300002800280463090028002800C742DA9203C
:10004000780029F987A0800A7422A920780029F96C
:1000500087A0752100E521249C5002800280028047
:100060000E80000521E521249C5002800280F205CB
:1000700020E52024F65002800280BA792C87A080E7
:10008000FE228081898288838B00EC4D6036E4E01B
:10009000F608A31DBDFFF31C80F0B800118B00EC27
:1000A0004D6021E7F609081DBDFFF41C80F189822F
:1000B00088838B00EC4D600CE493F608A31DBDFF14
:1000C000F31C80F022E4F5D075813878207A18F698
:0C00D00008DAFC1200030200000200C568
:10010000F9A4B0999282F88090FF0090F9A4B08091
:06011000999282F8FF0045
:00000001FF
