:10000000020058898288838B00EC4D6036E4E0F66C
:1000100008A31DBDFFF31C80F0B800118B00EC4D50
:100020006021E7F609081DBDFFF41C80F189828874
:10003000838B00EC4D600CE493F608A31DBDFFF329
:100040001C80F022E4F5D075812978207A09F60821
:0B005000DAFC1201090200000200446B
:1001000031323334353637383902020C7801790010
:100110007A007B207D097C0012001975803875A05B
:100120000175A00075808075A00175A000C2B02087
:100130009002800280107920878075A00375A0024C
:1001400075800175A00020910280028010792187BE
:100150008075A00375A00275800175A00020920231
:10016000800280107922878075A00375A0027580B7
:100170000175A000D2B0C2B1209002800280107937
:1001800023878075A00375A00275800175A00020EB
:100190009102800280107924878075A00375A002E7
:1001A00075800175A0002092028002801079258759
:1001B0008075A00375A00275800175A000D2B1C240
:1001C000B2209002800280107926878075A0037586
:1001D000A00275800175A000209102800280107934
:1001E00027878075A00375A00275800175A0002087
:1001F0009202800280107928878075A00375A00282
:0F02000075800175A000D2B202012D2202010CFF
:00000001FF
