:100000000200A780338C2B8D2C8013758CFC758A95
:1000100018D28C308D02800280F9C28DC28CAC2B3C
:10002000E52CFD152C7002152BED24FFEC648034BB
:100030007F4002800280D42280CB80557589017573
:1000400022007523AA7524017525047526107527CD
:1000500040852290792387907C007D0712000379E8
:100060002487907C007D03120003792587907C0013
:100070007D02120003792687907C007D0112000327
:10008000792787907C007D0212000385229080C42E
:100090002280A9E4F5D075812D78207A0DF608DA52
:0A00A000FC12003A02000002009377
:00000001FF
