:10000000020087802A8C228D2330CF02800280F963
:10001000C2CFD290800CE52324FFF523E52234FFE4
:10002000F522E52345227002800280EAC2902280F8
:10003000D4803E75B0007590FE75CB5675CAC85316
:10004000C8FCD2ADD2AFD2CA30B6028002800B7CDF
:100050000A7D8C1200038016801430B70280028063
:100060000B7C047DE212000380048002800080D8B3
:100070002280C0E4F5D0758124F520F521F522F524
:0A0080002312003102000002007399
:00000001FF
